{
  "contractName": "Collaboration",
  "abi": [
    {
      "anonymous": false,
      "inputs": [
        {
          "indexed": true,
          "internalType": "address",
          "name": "previousOwner",
          "type": "address"
        },
        {
          "indexed": true,
          "internalType": "address",
          "name": "newOwner",
          "type": "address"
        }
      ],
      "name": "OwnershipTransferred",
      "type": "event"
    },
    {
      "anonymous": false,
      "inputs": [
        {
          "indexed": true,
          "internalType": "address",
          "name": "token",
          "type": "address"
        },
        {
          "indexed": false,
          "internalType": "uint256",
          "name": "amount",
          "type": "uint256"
        }
      ],
      "name": "TokenMint",
      "type": "event"
    },
    {
      "inputs": [],
      "name": "owner",
      "outputs": [
        {
          "internalType": "address",
          "name": "",
          "type": "address"
        }
      ],
      "stateMutability": "view",
      "type": "function",
      "constant": true
    },
    {
      "inputs": [],
      "name": "private_token",
      "outputs": [
        {
          "internalType": "address",
          "name": "",
          "type": "address"
        }
      ],
      "stateMutability": "view",
      "type": "function",
      "constant": true
    },
    {
      "inputs": [],
      "name": "renounceOwnership",
      "outputs": [],
      "stateMutability": "nonpayable",
      "type": "function"
    },
    {
      "inputs": [
        {
          "internalType": "address",
          "name": "newOwner",
          "type": "address"
        }
      ],
      "name": "transferOwnership",
      "outputs": [],
      "stateMutability": "nonpayable",
      "type": "function"
    },
    {
      "inputs": [
        {
          "internalType": "uint256",
          "name": "amount",
          "type": "uint256"
        }
      ],
      "name": "mintToken",
      "outputs": [
        {
          "internalType": "bool",
          "name": "",
          "type": "bool"
        }
      ],
      "stateMutability": "nonpayable",
      "type": "function"
    },
    {
      "inputs": [
        {
          "internalType": "bytes",
          "name": "data",
          "type": "bytes"
        }
      ],
      "name": "callToken",
      "outputs": [],
      "stateMutability": "payable",
      "type": "function",
      "payable": true
    }
  ],
  "bytecode": "0x608060405260006100146100b760201b60201c565b9050806000806101000a81548173ffffffffffffffffffffffffffffffffffffffff021916908373ffffffffffffffffffffffffffffffffffffffff1602179055508073ffffffffffffffffffffffffffffffffffffffff16600073ffffffffffffffffffffffffffffffffffffffff167f8be0079c531659141344cd1fd0a4f28419497f9722a3daafe3b4186f6b6457e060405160405180910390a3506100bf565b600033905090565b613661806100ce6000396000f3fe6080604052600436106200005c5760003560e01c8063715018a614620000615780637fa9860f146200007b5780638da5cb5b14620000fa578063c4f0c6671462000154578063c634d03214620001ae578063f2fde38b1462000205575b600080fd5b3480156200006e57600080fd5b50620000796200025a565b005b620000f8600480360360208110156200009357600080fd5b8101908080359060200190640100000000811115620000b157600080fd5b820183602082011115620000c457600080fd5b80359060200191846001830284011164010000000083111715620000e757600080fd5b9091929391929390505050620003e5565b005b3480156200010757600080fd5b5062000112620004b5565b604051808273ffffffffffffffffffffffffffffffffffffffff1673ffffffffffffffffffffffffffffffffffffffff16815260200191505060405180910390f35b3480156200016157600080fd5b506200016c620004de565b604051808273ffffffffffffffffffffffffffffffffffffffff1673ffffffffffffffffffffffffffffffffffffffff16815260200191505060405180910390f35b348015620001bb57600080fd5b50620001eb60048036036020811015620001d457600080fd5b810190808035906020019092919050505062000504565b604051808215151515815260200191505060405180910390f35b3480156200021257600080fd5b5062000258600480360360208110156200022b57600080fd5b81019080803573ffffffffffffffffffffffffffffffffffffffff1690602001909291905050506200073f565b005b6200026462000951565b73ffffffffffffffffffffffffffffffffffffffff166000809054906101000a900473ffffffffffffffffffffffffffffffffffffffff1673ffffffffffffffffffffffffffffffffffffffff161462000326576040517f08c379a00000000000000000000000000000000000000000000000000000000081526004018080602001828103825260208152602001807f4f776e61626c653a2063616c6c6572206973206e6f7420746865206f776e657281525060200191505060405180910390fd5b600073ffffffffffffffffffffffffffffffffffffffff166000809054906101000a900473ffffffffffffffffffffffffffffffffffffffff1673ffffffffffffffffffffffffffffffffffffffff167f8be0079c531659141344cd1fd0a4f28419497f9722a3daafe3b4186f6b6457e060405160405180910390a360008060006101000a81548173ffffffffffffffffffffffffffffffffffffffff021916908373ffffffffffffffffffffffffffffffffffffffff160217905550565b620003ef62000951565b73ffffffffffffffffffffffffffffffffffffffff166000809054906101000a900473ffffffffffffffffffffffffffffffffffffffff1673ffffffffffffffffffffffffffffffffffffffff1614620004b1576040517f08c379a00000000000000000000000000000000000000000000000000000000081526004018080602001828103825260208152602001807f4f776e61626c653a2063616c6c6572206973206e6f7420746865206f776e657281525060200191505060405180910390fd5b5050565b60008060009054906101000a900473ffffffffffffffffffffffffffffffffffffffff16905090565b600160009054906101000a900473ffffffffffffffffffffffffffffffffffffffff1681565b600080821162000560576040517f08c379a0000000000000000000000000000000000000000000000000000000008152600401808060200182810382526023815260200180620036096023913960400191505060405180910390fd5b6000604051620005709062000959565b808060200180602001838103835260058152602001807f546f6b656e000000000000000000000000000000000000000000000000000000815250602001838103825260038152602001807f455243000000000000000000000000000000000000000000000000000000000081525060200192505050604051809103906000f08015801562000602573d6000803e3d6000fd5b5090508073ffffffffffffffffffffffffffffffffffffffff166340c10f1930856040518363ffffffff1660e01b8152600401808373ffffffffffffffffffffffffffffffffffffffff1673ffffffffffffffffffffffffffffffffffffffff16815260200182815260200192505050600060405180830381600087803b1580156200068d57600080fd5b505af1158015620006a2573d6000803e3d6000fd5b5050505080600160006101000a81548173ffffffffffffffffffffffffffffffffffffffff021916908373ffffffffffffffffffffffffffffffffffffffff1602179055508073ffffffffffffffffffffffffffffffffffffffff167f36bf5aa3964be01dbd95a0154a8930793fe68353bdc580871ffb2c911366bbc7846040518082815260200191505060405180910390a26001915050919050565b6200074962000951565b73ffffffffffffffffffffffffffffffffffffffff166000809054906101000a900473ffffffffffffffffffffffffffffffffffffffff1673ffffffffffffffffffffffffffffffffffffffff16146200080b576040517f08c379a00000000000000000000000000000000000000000000000000000000081526004018080602001828103825260208152602001807f4f776e61626c653a2063616c6c6572206973206e6f7420746865206f776e657281525060200191505060405180910390fd5b600073ffffffffffffffffffffffffffffffffffffffff168173ffffffffffffffffffffffffffffffffffffffff16141562000893576040517f08c379a0000000000000000000000000000000000000000000000000000000008152600401808060200182810382526026815260200180620035e36026913960400191505060405180910390fd5b8073ffffffffffffffffffffffffffffffffffffffff166000809054906101000a900473ffffffffffffffffffffffffffffffffffffffff1673ffffffffffffffffffffffffffffffffffffffff167f8be0079c531659141344cd1fd0a4f28419497f9722a3daafe3b4186f6b6457e060405160405180910390a3806000806101000a81548173ffffffffffffffffffffffffffffffffffffffff021916908373ffffffffffffffffffffffffffffffffffffffff16021790555050565b600033905090565b612c7b80620009688339019056fe60806040523480156200001157600080fd5b5060405162002c7b38038062002c7b833981810160405260408110156200003757600080fd5b81019080805160405193929190846401000000008211156200005857600080fd5b838201915060208201858111156200006f57600080fd5b82518660018202830111640100000000821117156200008d57600080fd5b8083526020830192505050908051906020019080838360005b83811015620000c3578082015181840152602081019050620000a6565b50505050905090810190601f168015620000f15780820380516001836020036101000a031916815260200191505b50604052602001805160405193929190846401000000008211156200011557600080fd5b838201915060208201858111156200012c57600080fd5b82518660018202830111640100000000821117156200014a57600080fd5b8083526020830192505050908051906020019080838360005b838110156200018057808201518184015260208101905062000163565b50505050905090810190601f168015620001ae5780820380516001836020036101000a031916815260200191505b5060405250505081818160049080519060200190620001cf92919062000490565b508060059080519060200190620001e892919062000490565b506012600660006101000a81548160ff021916908360ff16021790555050506000600660016101000a81548160ff021916908315150217905550620002466000801b6200023a620002fa60201b60201c565b6200030260201b60201c565b6200029c60405180807f4d494e5445525f524f4c45000000000000000000000000000000000000000000815250600b019050604051809103902062000290620002fa60201b60201c565b6200030260201b60201c565b620002f260405180807f5041555345525f524f4c45000000000000000000000000000000000000000000815250600b0190506040518091039020620002e6620002fa60201b60201c565b6200030260201b60201c565b50506200053f565b600033905090565b6200031482826200031860201b60201c565b5050565b6200034681600080858152602001908152602001600020600001620003bb60201b620020e21790919060201c565b15620003b7576200035c620002fa60201b60201c565b73ffffffffffffffffffffffffffffffffffffffff168173ffffffffffffffffffffffffffffffffffffffff16837f2f8788117e7eff1d82e926ec794901d17c78024a50270940304540a733656f0d60405160405180910390a45b5050565b6000620003eb836000018373ffffffffffffffffffffffffffffffffffffffff1660001b620003f360201b60201c565b905092915050565b60006200040783836200046d60201b60201c565b6200046257826000018290806001815401808255809150506001900390600052602060002001600090919091909150558260000180549050836001016000848152602001908152602001600020819055506001905062000467565b600090505b92915050565b600080836001016000848152602001908152602001600020541415905092915050565b828054600181600116156101000203166002900490600052602060002090601f016020900481019282601f10620004d357805160ff191683800117855562000504565b8280016001018555821562000504579182015b8281111562000503578251825591602001919060010190620004e6565b5b50905062000513919062000517565b5090565b6200053c91905b80821115620005385760008160009055506001016200051e565b5090565b90565b61272c806200054f6000396000f3fe608060405234801561001057600080fd5b50600436106101a95760003560e01c806370a08231116100f9578063a457c2d711610097578063d539139311610071578063d539139314610888578063d547741f146108a6578063dd62ed3e146108f4578063e63ab1e91461096c576101a9565b8063a457c2d71461077a578063a9059cbb146107e0578063ca15c87314610846576101a9565b80639010d07c116100d35780639010d07c146105fb57806391d148541461067357806395d89b41146106d9578063a217fddf1461075c576101a9565b806370a082311461054b57806379cc6790146105a35780638456cb59146105f1576101a9565b8063313ce567116101665780633f4ba83a116101405780633f4ba83a146104a357806340c10f19146104ad57806342966c68146104fb5780635c975abb14610529576101a9565b8063313ce567146103cb57806336568abe146103ef578063395093511461043d576101a9565b806306fdde03146101ae578063095ea7b31461023157806318160ddd1461029757806323b872dd146102b5578063248a9ca31461033b5780632f2ff15d1461037d575b600080fd5b6101b661098a565b6040518080602001828103825283818151815260200191508051906020019080838360005b838110156101f65780820151818401526020810190506101db565b50505050905090810190601f1680156102235780820380516001836020036101000a031916815260200191505b509250505060405180910390f35b61027d6004803603604081101561024757600080fd5b81019080803573ffffffffffffffffffffffffffffffffffffffff16906020019092919080359060200190929190505050610a2c565b604051808215151515815260200191505060405180910390f35b61029f610a4a565b6040518082815260200191505060405180910390f35b610321600480360360608110156102cb57600080fd5b81019080803573ffffffffffffffffffffffffffffffffffffffff169060200190929190803573ffffffffffffffffffffffffffffffffffffffff16906020019092919080359060200190929190505050610a54565b604051808215151515815260200191505060405180910390f35b6103676004803603602081101561035157600080fd5b8101908080359060200190929190505050610b2d565b6040518082815260200191505060405180910390f35b6103c96004803603604081101561039357600080fd5b8101908080359060200190929190803573ffffffffffffffffffffffffffffffffffffffff169060200190929190505050610b4c565b005b6103d3610bd5565b604051808260ff1660ff16815260200191505060405180910390f35b61043b6004803603604081101561040557600080fd5b8101908080359060200190929190803573ffffffffffffffffffffffffffffffffffffffff169060200190929190505050610bec565b005b6104896004803603604081101561045357600080fd5b81019080803573ffffffffffffffffffffffffffffffffffffffff16906020019092919080359060200190929190505050610c85565b604051808215151515815260200191505060405180910390f35b6104ab610d38565b005b6104f9600480360360408110156104c357600080fd5b81019080803573ffffffffffffffffffffffffffffffffffffffff16906020019092919080359060200190929190505050610ddd565b005b6105276004803603602081101561051157600080fd5b8101908080359060200190929190505050610e86565b005b610531610e9a565b604051808215151515815260200191505060405180910390f35b61058d6004803603602081101561056157600080fd5b81019080803573ffffffffffffffffffffffffffffffffffffffff169060200190929190505050610eb1565b6040518082815260200191505060405180910390f35b6105ef600480360360408110156105b957600080fd5b81019080803573ffffffffffffffffffffffffffffffffffffffff16906020019092919080359060200190929190505050610efa565b005b6105f9610f5c565b005b6106316004803603604081101561061157600080fd5b810190808035906020019092919080359060200190929190505050611001565b604051808273ffffffffffffffffffffffffffffffffffffffff1673ffffffffffffffffffffffffffffffffffffffff16815260200191505060405180910390f35b6106bf6004803603604081101561068957600080fd5b8101908080359060200190929190803573ffffffffffffffffffffffffffffffffffffffff169060200190929190505050611032565b604051808215151515815260200191505060405180910390f35b6106e1611063565b6040518080602001828103825283818151815260200191508051906020019080838360005b83811015610721578082015181840152602081019050610706565b50505050905090810190601f16801561074e5780820380516001836020036101000a031916815260200191505b509250505060405180910390f35b610764611105565b6040518082815260200191505060405180910390f35b6107c66004803603604081101561079057600080fd5b81019080803573ffffffffffffffffffffffffffffffffffffffff1690602001909291908035906020019092919050505061110c565b604051808215151515815260200191505060405180910390f35b61082c600480360360408110156107f657600080fd5b81019080803573ffffffffffffffffffffffffffffffffffffffff169060200190929190803590602001909291905050506111d9565b604051808215151515815260200191505060405180910390f35b6108726004803603602081101561085c57600080fd5b81019080803590602001909291905050506111f7565b6040518082815260200191505060405180910390f35b61089061121d565b6040518082815260200191505060405180910390f35b6108f2600480360360408110156108bc57600080fd5b8101908080359060200190929190803573ffffffffffffffffffffffffffffffffffffffff169060200190929190505050611256565b005b6109566004803603604081101561090a57600080fd5b81019080803573ffffffffffffffffffffffffffffffffffffffff169060200190929190803573ffffffffffffffffffffffffffffffffffffffff1690602001909291905050506112df565b6040518082815260200191505060405180910390f35b610974611366565b6040518082815260200191505060405180910390f35b606060048054600181600116156101000203166002900480601f016020809104026020016040519081016040528092919081815260200182805460018160011615610100020316600290048015610a225780601f106109f757610100808354040283529160200191610a22565b820191906000526020600020905b815481529060010190602001808311610a0557829003601f168201915b5050505050905090565b6000610a40610a3961139f565b84846113a7565b6001905092915050565b6000600354905090565b6000610a6184848461159e565b610b2284610a6d61139f565b610b1d8560405180606001604052806028815260200161255660289139600260008b73ffffffffffffffffffffffffffffffffffffffff1673ffffffffffffffffffffffffffffffffffffffff1681526020019081526020016000206000610ad361139f565b73ffffffffffffffffffffffffffffffffffffffff1673ffffffffffffffffffffffffffffffffffffffff168152602001908152602001600020546118639092919063ffffffff16565b6113a7565b600190509392505050565b6000806000838152602001908152602001600020600201549050919050565b610b7260008084815260200190815260200160002060020154610b6d61139f565b611032565b610bc7576040517f08c379a000000000000000000000000000000000000000000000000000000000815260040180806020018281038252602f815260200180612454602f913960400191505060405180910390fd5b610bd18282611923565b5050565b6000600660009054906101000a900460ff16905090565b610bf461139f565b73ffffffffffffffffffffffffffffffffffffffff168173ffffffffffffffffffffffffffffffffffffffff1614610c77576040517f08c379a000000000000000000000000000000000000000000000000000000000815260040180806020018281038252602f81526020018061269e602f913960400191505060405180910390fd5b610c8182826119b6565b5050565b6000610d2e610c9261139f565b84610d298560026000610ca361139f565b73ffffffffffffffffffffffffffffffffffffffff1673ffffffffffffffffffffffffffffffffffffffff16815260200190815260200160002060008973ffffffffffffffffffffffffffffffffffffffff1673ffffffffffffffffffffffffffffffffffffffff16815260200190815260200160002054611a4990919063ffffffff16565b6113a7565b6001905092915050565b610d7e60405180807f5041555345525f524f4c45000000000000000000000000000000000000000000815250600b0190506040518091039020610d7961139f565b611032565b610dd3576040517f08c379a00000000000000000000000000000000000000000000000000000000081526004018080602001828103825260398152602001806124a56039913960400191505060405180910390fd5b610ddb611ad1565b565b610e2360405180807f4d494e5445525f524f4c45000000000000000000000000000000000000000000815250600b0190506040518091039020610e1e61139f565b611032565b610e78576040517f08c379a000000000000000000000000000000000000000000000000000000000815260040180806020018281038252603681526020018061257e6036913960400191505060405180910390fd5b610e828282611bda565b5050565b610e97610e9161139f565b82611da3565b50565b6000600660019054906101000a900460ff16905090565b6000600160008373ffffffffffffffffffffffffffffffffffffffff1673ffffffffffffffffffffffffffffffffffffffff168152602001908152602001600020549050919050565b6000610f39826040518060600160405280602481526020016125b460249139610f2a86610f2561139f565b6112df565b6118639092919063ffffffff16565b9050610f4d83610f4761139f565b836113a7565b610f578383611da3565b505050565b610fa260405180807f5041555345525f524f4c45000000000000000000000000000000000000000000815250600b0190506040518091039020610f9d61139f565b611032565b610ff7576040517f08c379a00000000000000000000000000000000000000000000000000000000081526004018080602001828103825260378152602001806126426037913960400191505060405180910390fd5b610fff611f69565b565b600061102a8260008086815260200190815260200160002060000161207390919063ffffffff16565b905092915050565b600061105b8260008086815260200190815260200160002060000161208d90919063ffffffff16565b905092915050565b606060058054600181600116156101000203166002900480601f0160208091040260200160405190810160405280929190818152602001828054600181600116156101000203166002900480156110fb5780601f106110d0576101008083540402835291602001916110fb565b820191906000526020600020905b8154815290600101906020018083116110de57829003601f168201915b5050505050905090565b6000801b81565b60006111cf61111961139f565b846111ca85604051806060016040528060258152602001612679602591396002600061114361139f565b73ffffffffffffffffffffffffffffffffffffffff1673ffffffffffffffffffffffffffffffffffffffff16815260200190815260200160002060008a73ffffffffffffffffffffffffffffffffffffffff1673ffffffffffffffffffffffffffffffffffffffff168152602001908152602001600020546118639092919063ffffffff16565b6113a7565b6001905092915050565b60006111ed6111e661139f565b848461159e565b6001905092915050565b60006112166000808481526020019081526020016000206000016120bd565b9050919050565b60405180807f4d494e5445525f524f4c45000000000000000000000000000000000000000000815250600b019050604051809103902081565b61127c6000808481526020019081526020016000206002015461127761139f565b611032565b6112d1576040517f08c379a00000000000000000000000000000000000000000000000000000000081526004018080602001828103825260308152602001806125266030913960400191505060405180910390fd5b6112db82826119b6565b5050565b6000600260008473ffffffffffffffffffffffffffffffffffffffff1673ffffffffffffffffffffffffffffffffffffffff16815260200190815260200160002060008373ffffffffffffffffffffffffffffffffffffffff1673ffffffffffffffffffffffffffffffffffffffff16815260200190815260200160002054905092915050565b60405180807f5041555345525f524f4c45000000000000000000000000000000000000000000815250600b019050604051809103902081565b600033905090565b600073ffffffffffffffffffffffffffffffffffffffff168373ffffffffffffffffffffffffffffffffffffffff16141561142d576040517f08c379a000000000000000000000000000000000000000000000000000000000815260040180806020018281038252602481526020018061261e6024913960400191505060405180910390fd5b600073ffffffffffffffffffffffffffffffffffffffff168273ffffffffffffffffffffffffffffffffffffffff1614156114b3576040517f08c379a00000000000000000000000000000000000000000000000000000000081526004018080602001828103825260228152602001806124de6022913960400191505060405180910390fd5b80600260008573ffffffffffffffffffffffffffffffffffffffff1673ffffffffffffffffffffffffffffffffffffffff16815260200190815260200160002060008473ffffffffffffffffffffffffffffffffffffffff1673ffffffffffffffffffffffffffffffffffffffff168152602001908152602001600020819055508173ffffffffffffffffffffffffffffffffffffffff168373ffffffffffffffffffffffffffffffffffffffff167f8c5be1e5ebec7d5bd14f71427d1e84f3dd0314c0f7b2291e5b200ac8c7c3b925836040518082815260200191505060405180910390a3505050565b600073ffffffffffffffffffffffffffffffffffffffff168373ffffffffffffffffffffffffffffffffffffffff161415611624576040517f08c379a00000000000000000000000000000000000000000000000000000000081526004018080602001828103825260258152602001806125f96025913960400191505060405180910390fd5b600073ffffffffffffffffffffffffffffffffffffffff168273ffffffffffffffffffffffffffffffffffffffff1614156116aa576040517f08c379a00000000000000000000000000000000000000000000000000000000081526004018080602001828103825260238152602001806124316023913960400191505060405180910390fd5b6116b58383836120d2565b6117218160405180606001604052806026815260200161250060269139600160008773ffffffffffffffffffffffffffffffffffffffff1673ffffffffffffffffffffffffffffffffffffffff168152602001908152602001600020546118639092919063ffffffff16565b600160008573ffffffffffffffffffffffffffffffffffffffff1673ffffffffffffffffffffffffffffffffffffffff168152602001908152602001600020819055506117b681600160008573ffffffffffffffffffffffffffffffffffffffff1673ffffffffffffffffffffffffffffffffffffffff16815260200190815260200160002054611a4990919063ffffffff16565b600160008473ffffffffffffffffffffffffffffffffffffffff1673ffffffffffffffffffffffffffffffffffffffff168152602001908152602001600020819055508173ffffffffffffffffffffffffffffffffffffffff168373ffffffffffffffffffffffffffffffffffffffff167fddf252ad1be2c89b69c2b068fc378daa952ba7f163c4a11628f55a4df523b3ef836040518082815260200191505060405180910390a3505050565b6000838311158290611910576040517f08c379a00000000000000000000000000000000000000000000000000000000081526004018080602001828103825283818151815260200191508051906020019080838360005b838110156118d55780820151818401526020810190506118ba565b50505050905090810190601f1680156119025780820380516001836020036101000a031916815260200191505b509250505060405180910390fd5b5060008385039050809150509392505050565b61194a816000808581526020019081526020016000206000016120e290919063ffffffff16565b156119b25761195761139f565b73ffffffffffffffffffffffffffffffffffffffff168173ffffffffffffffffffffffffffffffffffffffff16837f2f8788117e7eff1d82e926ec794901d17c78024a50270940304540a733656f0d60405160405180910390a45b5050565b6119dd8160008085815260200190815260200160002060000161211290919063ffffffff16565b15611a45576119ea61139f565b73ffffffffffffffffffffffffffffffffffffffff168173ffffffffffffffffffffffffffffffffffffffff16837ff6391f5c32d9c69d2a47ea670b442974b53935d1edc7fd64eb21e047a839171b60405160405180910390a45b5050565b600080828401905083811015611ac7576040517f08c379a000000000000000000000000000000000000000000000000000000000815260040180806020018281038252601b8152602001807f536166654d6174683a206164646974696f6e206f766572666c6f77000000000081525060200191505060405180910390fd5b8091505092915050565b600660019054906101000a900460ff16611b53576040517f08c379a00000000000000000000000000000000000000000000000000000000081526004018080602001828103825260148152602001807f5061757361626c653a206e6f742070617573656400000000000000000000000081525060200191505060405180910390fd5b6000600660016101000a81548160ff0219169083151502179055507f5db9ee0a495bf2e6ff9c91a7834c1ba4fdd244a5e8aa4e537bd38aeae4b073aa611b9761139f565b604051808273ffffffffffffffffffffffffffffffffffffffff1673ffffffffffffffffffffffffffffffffffffffff16815260200191505060405180910390a1565b600073ffffffffffffffffffffffffffffffffffffffff168273ffffffffffffffffffffffffffffffffffffffff161415611c7d576040517f08c379a000000000000000000000000000000000000000000000000000000000815260040180806020018281038252601f8152602001807f45524332303a206d696e7420746f20746865207a65726f20616464726573730081525060200191505060405180910390fd5b611c89600083836120d2565b611c9e81600354611a4990919063ffffffff16565b600381905550611cf681600160008573ffffffffffffffffffffffffffffffffffffffff1673ffffffffffffffffffffffffffffffffffffffff16815260200190815260200160002054611a4990919063ffffffff16565b600160008473ffffffffffffffffffffffffffffffffffffffff1673ffffffffffffffffffffffffffffffffffffffff168152602001908152602001600020819055508173ffffffffffffffffffffffffffffffffffffffff16600073ffffffffffffffffffffffffffffffffffffffff167fddf252ad1be2c89b69c2b068fc378daa952ba7f163c4a11628f55a4df523b3ef836040518082815260200191505060405180910390a35050565b600073ffffffffffffffffffffffffffffffffffffffff168273ffffffffffffffffffffffffffffffffffffffff161415611e29576040517f08c379a00000000000000000000000000000000000000000000000000000000081526004018080602001828103825260218152602001806125d86021913960400191505060405180910390fd5b611e35826000836120d2565b611ea18160405180606001604052806022815260200161248360229139600160008673ffffffffffffffffffffffffffffffffffffffff1673ffffffffffffffffffffffffffffffffffffffff168152602001908152602001600020546118639092919063ffffffff16565b600160008473ffffffffffffffffffffffffffffffffffffffff1673ffffffffffffffffffffffffffffffffffffffff16815260200190815260200160002081905550611ef98160035461214290919063ffffffff16565b600381905550600073ffffffffffffffffffffffffffffffffffffffff168273ffffffffffffffffffffffffffffffffffffffff167fddf252ad1be2c89b69c2b068fc378daa952ba7f163c4a11628f55a4df523b3ef836040518082815260200191505060405180910390a35050565b600660019054906101000a900460ff1615611fec576040517f08c379a00000000000000000000000000000000000000000000000000000000081526004018080602001828103825260108152602001807f5061757361626c653a207061757365640000000000000000000000000000000081525060200191505060405180910390fd5b6001600660016101000a81548160ff0219169083151502179055507f62e78cea01bee320cd4e420270b5ea74000d11b0c9f74754ebdbfc544b05a25861203061139f565b604051808273ffffffffffffffffffffffffffffffffffffffff1673ffffffffffffffffffffffffffffffffffffffff16815260200191505060405180910390a1565b6000612082836000018361218c565b60001c905092915050565b60006120b5836000018373ffffffffffffffffffffffffffffffffffffffff1660001b61220f565b905092915050565b60006120cb82600001612232565b9050919050565b6120dd838383612243565b505050565b600061210a836000018373ffffffffffffffffffffffffffffffffffffffff1660001b6122b1565b905092915050565b600061213a836000018373ffffffffffffffffffffffffffffffffffffffff1660001b612321565b905092915050565b600061218483836040518060400160405280601e81526020017f536166654d6174683a207375627472616374696f6e206f766572666c6f770000815250611863565b905092915050565b6000818360000180549050116121ed576040517f08c379a000000000000000000000000000000000000000000000000000000000815260040180806020018281038252602281526020018061240f6022913960400191505060405180910390fd5b8260000182815481106121fc57fe5b9060005260206000200154905092915050565b600080836001016000848152602001908152602001600020541415905092915050565b600081600001805490509050919050565b61224e838383612409565b612256610e9a565b156122ac576040517f08c379a000000000000000000000000000000000000000000000000000000000815260040180806020018281038252602a8152602001806126cd602a913960400191505060405180910390fd5b505050565b60006122bd838361220f565b61231657826000018290806001815401808255809150506001900390600052602060002001600090919091909150558260000180549050836001016000848152602001908152602001600020819055506001905061231b565b600090505b92915050565b600080836001016000848152602001908152602001600020549050600081146123fd576000600182039050600060018660000180549050039050600086600001828154811061236c57fe5b906000526020600020015490508087600001848154811061238957fe5b90600052602060002001819055506001830187600101600083815260200190815260200160002081905550866000018054806123c157fe5b60019003818190600052602060002001600090559055866001016000878152602001908152602001600020600090556001945050505050612403565b60009150505b92915050565b50505056fe456e756d657261626c655365743a20696e646578206f7574206f6620626f756e647345524332303a207472616e7366657220746f20746865207a65726f2061646472657373416363657373436f6e74726f6c3a2073656e646572206d75737420626520616e2061646d696e20746f206772616e7445524332303a206275726e20616d6f756e7420657863656564732062616c616e636545524332305072657365744d696e7465725061757365723a206d75737420686176652070617573657220726f6c6520746f20756e706175736545524332303a20617070726f766520746f20746865207a65726f206164647265737345524332303a207472616e7366657220616d6f756e7420657863656564732062616c616e6365416363657373436f6e74726f6c3a2073656e646572206d75737420626520616e2061646d696e20746f207265766f6b6545524332303a207472616e7366657220616d6f756e74206578636565647320616c6c6f77616e636545524332305072657365744d696e7465725061757365723a206d7573742068617665206d696e74657220726f6c6520746f206d696e7445524332303a206275726e20616d6f756e74206578636565647320616c6c6f77616e636545524332303a206275726e2066726f6d20746865207a65726f206164647265737345524332303a207472616e736665722066726f6d20746865207a65726f206164647265737345524332303a20617070726f76652066726f6d20746865207a65726f206164647265737345524332305072657365744d696e7465725061757365723a206d75737420686176652070617573657220726f6c6520746f20706175736545524332303a2064656372656173656420616c6c6f77616e63652062656c6f77207a65726f416363657373436f6e74726f6c3a2063616e206f6e6c792072656e6f756e636520726f6c657320666f722073656c6645524332305061757361626c653a20746f6b656e207472616e73666572207768696c6520706175736564a26469706673582212209f96eb0cbe62153c453f6ac52bf2ec717132175b2a9d1fcf6c3053f479e121ee64736f6c634300060200334f776e61626c653a206e6577206f776e657220697320746865207a65726f206164647265737354686520616d6f756e74206d757374206265206c6172676572207468616e207a65726fa264697066735822122056f65c8688728f047c4066828c898f20ccdc31c6c0966179536712812e2dbb6964736f6c63430006020033",
  "source": "pragma solidity ^0.6.0;\n\nimport 'openzeppelin-solidity/contracts/access/Ownable.sol';\nimport 'openzeppelin-solidity/contracts/presets/ERC20PresetMinterPauser.sol';\n\ncontract Collaboration is Ownable {\n\taddress public private_token;\n\t\n\tevent TokenMint(address indexed token, uint256 amount);\n\n\t/**\n\t * @dev Deploys new Token contract with the Minter and the Pauser roles set to the Collaboration,\n\t * mint tokens to the Collaboration and, finally, emits TokenMint event\n\t * @param amount - number of tokens to mint\n\t * @return true if the Tokens have been mint.\n\t*/\n\tfunction mintToken(uint256 amount) external returns (bool) {\n        require(amount > 0, 'The amount must be larger than zero');\n        // 1. deploy new custom ERC20PresetMinterPauser\n        ERC20PresetMinterPauser token = new ERC20PresetMinterPauser('Token', 'ERC');\n        // 2. mint tokens\n        token.mint(address(this), amount);\n\t\tprivate_token = address(token);\n        // 3. emit the event\n        emit TokenMint(address(token), amount);\n\t\treturn true;\n    }\n\n\t/**\n\t * DelegateCalls the Token contract\n\t * @param data Data to send as msg.data\n\t * It should include the signature and the parameters of the function to be called, as described in\n\t * https://solidity.readthedocs.io/en/v0.4.24/abi-spec.html#function-selector-and-argument-encoding.\n\t*/\n\tfunction callToken(bytes calldata data) payable external onlyOwner {\n\n    }\n}",
  "sourcePath": "C:\\Users\\merun\\Desktop\\collaboration\\contracts\\Collaboration.sol",
  "compiler": {
    "name": "solc",
    "version": "0.6.2+commit.bacdbe57.Emscripten.clang"
  },
  "schemaVersion": "3.1.0",
  "updatedAt": "2020-07-12T22:34:12.205Z",
  "networkType": "ethereum",
  "devdoc": {
    "methods": {
      "callToken(bytes)": {
        "params": {
          "data": "Data to send as msg.data It should include the signature and the parameters of the function to be called, as described in https://solidity.readthedocs.io/en/v0.4.24/abi-spec.html#function-selector-and-argument-encoding."
        }
      },
      "mintToken(uint256)": {
        "details": "Deploys new Token contract with the Minter and the Pauser roles set to the Collaboration, mint tokens to the Collaboration and, finally, emits TokenMint event",
        "params": {
          "amount": "- number of tokens to mint"
        },
        "returns": {
          "_0": "true if the Tokens have been mint."
        }
      },
      "owner()": {
        "details": "Returns the address of the current owner."
      },
      "renounceOwnership()": {
        "details": "Leaves the contract without owner. It will not be possible to call `onlyOwner` functions anymore. Can only be called by the current owner.     * NOTE: Renouncing ownership will leave the contract without an owner, thereby removing any functionality that is only available to the owner."
      },
      "transferOwnership(address)": {
        "details": "Transfers ownership of the contract to a new account (`newOwner`). Can only be called by the current owner."
      }
    }
  },
  "userdoc": {
    "methods": {
      "callToken(bytes)": {
        "notice": "DelegateCalls the Token contract"
      }
    }
  }
}